:100000000A128A11FC2F00308A000408840A820731
:100010000034763461346C346F3472346534203497
:080020003D3400342E3400349D
:1009BE00831203139D111D110800831203139D153D
:1009CE001D1508008312031397101710171597158E
:1009DE000800F0008312031394137008930083161B
:1009EE00031314180800F62C01300A128A1176250A
:1009FE000A128A1102300A128A1176250800831211
:100A0E0003139F149F18092D1E08F100831603135C
:100A1E001E08F000080040308316031394002230A5
:100A2E008312031394008316031391010800F2003E
:100A3E0083120313051140300A128A11F0240A1290
:100A4E008A1172080A128A11F0240A128A11710888
:100A5E000A128A11F02483120313051508000430BC
:100A6E0075020030031974020318462D7508F10043
:100A7E007408F0000A128A11BA250A128A1104307B
:100A8E007702003003197602031808007708F10088
:100A9E007608F0000A128A11DC25080081308312D4
:100AAE0003139F000D30F100FB30F000F00B5D2DB5
:100ABE00F10B5D2D622D8030831603139F000D30D8
:100ACE00F100FB30F000F00B6A2DF10B6A2D6F2D4B
:100ADE00831603139E01831203139E010800F40074
:100AEE00F10112300A128A111E250A128A11740897
:100AFE00F3007308F10013300A128A111E250A1230
:100B0E008A114030F3007308F10012300A128A1174
:100B1E001E250A128A11F10112300A128A111E259F
:100B2E000800F700F501F6017508770784000A1230
:100B3E008A1103200A128A11003A03190800750857
:100B4E00770784000A128A1103200A128A110A12E8
:100B5E008A11FE250A128A110130F5070318F60ACA
:100B6E000030F6079B2D70080239F200F20EF20DDE
:100B7E008312031317087206DF3972069700700886
:100B8E000139F200F20E17087206EF39720697005D
:100B9E007108F3007008F2000310F30CF20C03104E
:100BAE00F30CF20C72089500080070080239F2007E
:100BBE00F20EF20D831203131D087206DF39720650
:100BCE009D0070080139F200F20E1D087206EF3911
:100BDE0072069D007108F3007008F2000310F30C0A
:100BEE00F20C0310F30CF20C72089B000800F400D8
:100BFE008030F3007308F10012300A128A111E259C
:100C0E000A128A117408F3007308F10013300A12E5
:100C1E008A111E250A128A11C030F3007308F100E2
:100C2E0012300A128A111E250A128A118030F30020
:100C3E007308F10012300A128A111E250800FB00FB
:100C4E0003307B02031808007B08031908007B039E
:100C5E0003193A2E7508FF3EF600FF3003180030D8
:100C6E00F700C030422E7508FF3EF600FF30031825
:100C7E000030F70080307604F80000307704F90079
:100C8E007808F6007608FA007A080A128A11762594
:100C9E0008008312031397019D01FF30831603137F
:100CAE009200F430F4000130F500F430F60001301B
:100CBE00F7000A128A1136250A128A11780379046E
:100CCE00031D6D2E831203131210752E0430780639
:100CDE007904031D772E8312031312149210802EA3
:100CEE00103078067904031D802E8312031312141C
:100CFE0092148312031312150A128A11E9240A128E
:100D0E008A110A128A11E4240800FA01F901F80185
:100D1E007608803AFF0080307F02031D982E6430E3
:100D2E007502031CAF2E9C30F5070318F60AFF3030
:100D3E00F6070130F7007708FA078F2EF630F50721
:100D4E000318F60AFF30F6070130F7007708F907A7
:100D5E007608803AFF0080307F02031DB82E0A30DD
:100D6E0075020318A52E7508F7007708F8007A08A3
:100D7E00031DC92E7908031DC92E2030F7007708F0
:100D8E00F900CD2E3030F7007708F9077A08031DE9
:100D9E00D52E2030F7007708FA00D92E3030F70024
:100DAE007708FA073030F7007708F8077A080A1242
:100DBE008A11FE250A128A1179080A128A11FE2555
:100DCE000A128A1178080A128A11FE2508000A12E0
:100DDE008A1112250A128A11831203130511861223
:100DEE001A30F600F830F500F50BFB2EF60BFB2E45
:100DFE0000008312031386160515F10100300A1246
:100E0E008A111E250A128A11F10101300A128A1165
:100E1E001E250A128A111A30F600F830F500F50B6D
:100E2E00162FF60B162F00003C300A128A1176256B
:100E3E000A128A111A30F600F830F500F50B252F3C
:100E4E00F60B252F00000C300A128A1176250A1295
:100E5E008A111A30F600F830F500F50B342FF60B28
:100E6E00342F000001300A128A1176250A128A11D7
:100E7E001A30F600F830F500F50B432FF60B432F22
:100E8E0000000C300A128A1176250A128A110230DD
:100E9E00F7005230F600A630F500F50B542FF60B86
:100EAE00542FF70B542F000080300A128A1176252A
:100EBE000A128A111A30F600F830F500F50B652F7C
:100ECE00F60B652F000008008312031385018601BF
:100EDE00870188018901013083160313850086017D
:100EEE0087010F30880089010130831603178800AF
:100EFE0089010A128A11EE260A128A110A128A1121
:100F0E0055250A128A11F43083120313A3000130FF
:100F1E00A400F430A5000130A6001030F800003017
:100F2E00F9000A128A1150260A128A110A128A111F
:100F3E00FB240A128A11063083120313A200133007
:100F4E00A100AD30A000A00BAA2FA10BAA2FA20BBF
:100F5E00AA2FF501F50A01300A128A1126260A1265
:100F6E008A1101300A128A1198250A128A110A1260
:100F7E008A1106250A128A11710883120313A8001A
:100F8E007008A7002808F6002708F5000A128A1133
:100F9E008C260A128A11033083120313A200083022
:100FAE00A1007630A000A00BDA2FA10BDA2FA20B36
:100FBE00DA2F00000A128A11DF240A128A11831214
:100FCE0003132808F1002708F0000A128A11BA2527
:100FDE000A128A11823083120313A100DD30A000A1
:100FEE00A00BF72FA10BF72FB02F83010A128A1136
:020FFE006B2F57
:04400E00F1E0FFFFDF
:00000001FF
